{
  "contractName": "FeeModuleV0",
  "abi": [
    {
      "inputs": [
        {
          "internalType": "address",
          "name": "",
          "type": "address"
        },
        {
          "internalType": "uint256",
          "name": "",
          "type": "uint256"
        }
      ],
      "name": "pay",
      "outputs": [
        {
          "internalType": "bool",
          "name": "success",
          "type": "bool"
        }
      ],
      "stateMutability": "pure",
      "type": "function",
      "constant": true
    }
  ],
  "bytecode": "0x608060405234801561001057600080fd5b5060be8061001f6000396000f3fe6080604052348015600f57600080fd5b506004361060285760003560e01c8063c407687614602d575b600080fd5b604060383660046054565b600192915050565b604051901515815260200160405180910390f35b600080604083850312156065578182fd5b82356001600160a01b0381168114607a578283fd5b94602093909301359350505056fea26469706673582212207262cfe99d61eb6d4c83cec3c2d956c434421d883172f96f2efe053e533571b564736f6c63430008040033",
  "immutableReferences": {},
  "source": "// SPDX-License-Identifier: MIT\n\npragma solidity ^0.8.0;\n\nimport \"./interfaces/IFeeModule.sol\";\n\ncontract FeeModuleV0 is IFeeModule {\n  // @dev A pay function that doesn't require payment\n  function pay(address, uint256) override external pure returns (bool success) {\n    return true;\n  }\n}\n\n",
  "sourcePath": "/home/home/dotfiles/nomspace/contracts/FeeModuleV0.sol",
  "compiler": {
    "name": "solc",
    "version": "0.8.4+commit.c7e474f2.Emscripten.clang"
  },
  "schemaVersion": "3.4.1",
  "updatedAt": "2021-06-15T17:25:13.333Z",
  "networkType": "ethereum",
  "devdoc": {
    "kind": "dev",
    "methods": {},
    "version": 1
  },
  "userdoc": {
    "kind": "user",
    "methods": {},
    "version": 1
  }
}