{
  "_format": "hh-sol-artifact-1",
  "contractName": "Nomstronaut",
  "sourceName": "contracts/Nomstronaut.sol",
  "abi": [
    {
      "inputs": [
        {
          "internalType": "string",
          "name": "_name",
          "type": "string"
        },
        {
          "internalType": "string",
          "name": "_symbol",
          "type": "string"
        },
        {
          "internalType": "string",
          "name": "_initBaseURI",
          "type": "string"
        }
      ],
      "stateMutability": "nonpayable",
      "type": "constructor"
    },
    {
      "anonymous": false,
      "inputs": [
        {
          "indexed": true,
          "internalType": "address",
          "name": "owner",
          "type": "address"
        },
        {
          "indexed": true,
          "internalType": "address",
          "name": "approved",
          "type": "address"
        },
        {
          "indexed": true,
          "internalType": "uint256",
          "name": "tokenId",
          "type": "uint256"
        }
      ],
      "name": "Approval",
      "type": "event"
    },
    {
      "anonymous": false,
      "inputs": [
        {
          "indexed": true,
          "internalType": "address",
          "name": "owner",
          "type": "address"
        },
        {
          "indexed": true,
          "internalType": "address",
          "name": "operator",
          "type": "address"
        },
        {
          "indexed": false,
          "internalType": "bool",
          "name": "approved",
          "type": "bool"
        }
      ],
      "name": "ApprovalForAll",
      "type": "event"
    },
    {
      "anonymous": false,
      "inputs": [
        {
          "indexed": true,
          "internalType": "address",
          "name": "previousOwner",
          "type": "address"
        },
        {
          "indexed": true,
          "internalType": "address",
          "name": "newOwner",
          "type": "address"
        }
      ],
      "name": "OwnershipTransferred",
      "type": "event"
    },
    {
      "anonymous": false,
      "inputs": [
        {
          "indexed": false,
          "internalType": "address",
          "name": "account",
          "type": "address"
        }
      ],
      "name": "Paused",
      "type": "event"
    },
    {
      "anonymous": false,
      "inputs": [
        {
          "indexed": true,
          "internalType": "address",
          "name": "from",
          "type": "address"
        },
        {
          "indexed": true,
          "internalType": "address",
          "name": "to",
          "type": "address"
        },
        {
          "indexed": true,
          "internalType": "uint256",
          "name": "tokenId",
          "type": "uint256"
        }
      ],
      "name": "Transfer",
      "type": "event"
    },
    {
      "anonymous": false,
      "inputs": [
        {
          "indexed": false,
          "internalType": "address",
          "name": "account",
          "type": "address"
        }
      ],
      "name": "Unpaused",
      "type": "event"
    },
    {
      "inputs": [
        {
          "internalType": "address",
          "name": "to",
          "type": "address"
        },
        {
          "internalType": "uint256",
          "name": "tokenId",
          "type": "uint256"
        }
      ],
      "name": "approve",
      "outputs": [],
      "stateMutability": "nonpayable",
      "type": "function"
    },
    {
      "inputs": [
        {
          "internalType": "address",
          "name": "owner",
          "type": "address"
        }
      ],
      "name": "balanceOf",
      "outputs": [
        {
          "internalType": "uint256",
          "name": "",
          "type": "uint256"
        }
      ],
      "stateMutability": "view",
      "type": "function"
    },
    {
      "inputs": [],
      "name": "baseExtension",
      "outputs": [
        {
          "internalType": "string",
          "name": "",
          "type": "string"
        }
      ],
      "stateMutability": "view",
      "type": "function"
    },
    {
      "inputs": [],
      "name": "baseURI",
      "outputs": [
        {
          "internalType": "string",
          "name": "",
          "type": "string"
        }
      ],
      "stateMutability": "view",
      "type": "function"
    },
    {
      "inputs": [],
      "name": "cost",
      "outputs": [
        {
          "internalType": "uint256",
          "name": "",
          "type": "uint256"
        }
      ],
      "stateMutability": "view",
      "type": "function"
    },
    {
      "inputs": [
        {
          "internalType": "uint256",
          "name": "tokenId",
          "type": "uint256"
        }
      ],
      "name": "getApproved",
      "outputs": [
        {
          "internalType": "address",
          "name": "",
          "type": "address"
        }
      ],
      "stateMutability": "view",
      "type": "function"
    },
    {
      "inputs": [
        {
          "internalType": "address",
          "name": "owner",
          "type": "address"
        },
        {
          "internalType": "address",
          "name": "operator",
          "type": "address"
        }
      ],
      "name": "isApprovedForAll",
      "outputs": [
        {
          "internalType": "bool",
          "name": "",
          "type": "bool"
        }
      ],
      "stateMutability": "view",
      "type": "function"
    },
    {
      "inputs": [],
      "name": "maxMintAmount",
      "outputs": [
        {
          "internalType": "uint256",
          "name": "",
          "type": "uint256"
        }
      ],
      "stateMutability": "view",
      "type": "function"
    },
    {
      "inputs": [],
      "name": "maxSupply",
      "outputs": [
        {
          "internalType": "uint256",
          "name": "",
          "type": "uint256"
        }
      ],
      "stateMutability": "view",
      "type": "function"
    },
    {
      "inputs": [
        {
          "internalType": "address",
          "name": "_to",
          "type": "address"
        },
        {
          "internalType": "uint256",
          "name": "_mintAmount",
          "type": "uint256"
        }
      ],
      "name": "mint",
      "outputs": [],
      "stateMutability": "payable",
      "type": "function"
    },
    {
      "inputs": [],
      "name": "name",
      "outputs": [
        {
          "internalType": "string",
          "name": "",
          "type": "string"
        }
      ],
      "stateMutability": "view",
      "type": "function"
    },
    {
      "inputs": [],
      "name": "owner",
      "outputs": [
        {
          "internalType": "address",
          "name": "",
          "type": "address"
        }
      ],
      "stateMutability": "view",
      "type": "function"
    },
    {
      "inputs": [
        {
          "internalType": "uint256",
          "name": "tokenId",
          "type": "uint256"
        }
      ],
      "name": "ownerOf",
      "outputs": [
        {
          "internalType": "address",
          "name": "",
          "type": "address"
        }
      ],
      "stateMutability": "view",
      "type": "function"
    },
    {
      "inputs": [],
      "name": "pause",
      "outputs": [],
      "stateMutability": "nonpayable",
      "type": "function"
    },
    {
      "inputs": [],
      "name": "paused",
      "outputs": [
        {
          "internalType": "bool",
          "name": "",
          "type": "bool"
        }
      ],
      "stateMutability": "view",
      "type": "function"
    },
    {
      "inputs": [],
      "name": "renounceOwnership",
      "outputs": [],
      "stateMutability": "nonpayable",
      "type": "function"
    },
    {
      "inputs": [
        {
          "internalType": "address",
          "name": "from",
          "type": "address"
        },
        {
          "internalType": "address",
          "name": "to",
          "type": "address"
        },
        {
          "internalType": "uint256",
          "name": "tokenId",
          "type": "uint256"
        }
      ],
      "name": "safeTransferFrom",
      "outputs": [],
      "stateMutability": "nonpayable",
      "type": "function"
    },
    {
      "inputs": [
        {
          "internalType": "address",
          "name": "from",
          "type": "address"
        },
        {
          "internalType": "address",
          "name": "to",
          "type": "address"
        },
        {
          "internalType": "uint256",
          "name": "tokenId",
          "type": "uint256"
        },
        {
          "internalType": "bytes",
          "name": "_data",
          "type": "bytes"
        }
      ],
      "name": "safeTransferFrom",
      "outputs": [],
      "stateMutability": "nonpayable",
      "type": "function"
    },
    {
      "inputs": [
        {
          "internalType": "address",
          "name": "operator",
          "type": "address"
        },
        {
          "internalType": "bool",
          "name": "approved",
          "type": "bool"
        }
      ],
      "name": "setApprovalForAll",
      "outputs": [],
      "stateMutability": "nonpayable",
      "type": "function"
    },
    {
      "inputs": [
        {
          "internalType": "string",
          "name": "_newBaseExtension",
          "type": "string"
        }
      ],
      "name": "setBaseExtension",
      "outputs": [],
      "stateMutability": "nonpayable",
      "type": "function"
    },
    {
      "inputs": [
        {
          "internalType": "string",
          "name": "_newBaseURI",
          "type": "string"
        }
      ],
      "name": "setBaseURI",
      "outputs": [],
      "stateMutability": "nonpayable",
      "type": "function"
    },
    {
      "inputs": [
        {
          "internalType": "uint256",
          "name": "_newCost",
          "type": "uint256"
        }
      ],
      "name": "setCost",
      "outputs": [],
      "stateMutability": "nonpayable",
      "type": "function"
    },
    {
      "inputs": [
        {
          "internalType": "uint256",
          "name": "_newmaxMintAmount",
          "type": "uint256"
        }
      ],
      "name": "setMaxMintAmount",
      "outputs": [],
      "stateMutability": "nonpayable",
      "type": "function"
    },
    {
      "inputs": [
        {
          "internalType": "bytes4",
          "name": "interfaceId",
          "type": "bytes4"
        }
      ],
      "name": "supportsInterface",
      "outputs": [
        {
          "internalType": "bool",
          "name": "",
          "type": "bool"
        }
      ],
      "stateMutability": "view",
      "type": "function"
    },
    {
      "inputs": [],
      "name": "symbol",
      "outputs": [
        {
          "internalType": "string",
          "name": "",
          "type": "string"
        }
      ],
      "stateMutability": "view",
      "type": "function"
    },
    {
      "inputs": [
        {
          "internalType": "uint256",
          "name": "index",
          "type": "uint256"
        }
      ],
      "name": "tokenByIndex",
      "outputs": [
        {
          "internalType": "uint256",
          "name": "",
          "type": "uint256"
        }
      ],
      "stateMutability": "view",
      "type": "function"
    },
    {
      "inputs": [
        {
          "internalType": "address",
          "name": "owner",
          "type": "address"
        },
        {
          "internalType": "uint256",
          "name": "index",
          "type": "uint256"
        }
      ],
      "name": "tokenOfOwnerByIndex",
      "outputs": [
        {
          "internalType": "uint256",
          "name": "",
          "type": "uint256"
        }
      ],
      "stateMutability": "view",
      "type": "function"
    },
    {
      "inputs": [
        {
          "internalType": "uint256",
          "name": "tokenId",
          "type": "uint256"
        }
      ],
      "name": "tokenURI",
      "outputs": [
        {
          "internalType": "string",
          "name": "",
          "type": "string"
        }
      ],
      "stateMutability": "view",
      "type": "function"
    },
    {
      "inputs": [],
      "name": "totalSupply",
      "outputs": [
        {
          "internalType": "uint256",
          "name": "",
          "type": "uint256"
        }
      ],
      "stateMutability": "view",
      "type": "function"
    },
    {
      "inputs": [
        {
          "internalType": "address",
          "name": "from",
          "type": "address"
        },
        {
          "internalType": "address",
          "name": "to",
          "type": "address"
        },
        {
          "internalType": "uint256",
          "name": "tokenId",
          "type": "uint256"
        }
      ],
      "name": "transferFrom",
      "outputs": [],
      "stateMutability": "nonpayable",
      "type": "function"
    },
    {
      "inputs": [
        {
          "internalType": "address",
          "name": "newOwner",
          "type": "address"
        }
      ],
      "name": "transferOwnership",
      "outputs": [],
      "stateMutability": "nonpayable",
      "type": "function"
    },
    {
      "inputs": [],
      "name": "unpause",
      "outputs": [],
      "stateMutability": "nonpayable",
      "type": "function"
    },
    {
      "inputs": [
        {
          "internalType": "address",
          "name": "_owner",
          "type": "address"
        }
      ],
      "name": "walletOfOwner",
      "outputs": [
        {
          "internalType": "uint256[]",
          "name": "",
          "type": "uint256[]"
        }
      ],
      "stateMutability": "view",
      "type": "function"
    },
    {
      "inputs": [],
      "name": "withdraw",
      "outputs": [],
      "stateMutability": "payable",
      "type": "function"
    },
    {
      "inputs": [
        {
          "internalType": "contract IERC20",
          "name": "token",
          "type": "address"
        }
      ],
      "name": "withdrawERC20",
      "outputs": [],
      "stateMutability": "nonpayable",
      "type": "function"
    }
  ],
  "bytecode": "0x60c06040526005608081905264173539b7b760d91b60a09081526200002891600c919062000824565b50611770600d55600a600e556729a2241af62c0000600f553480156200004d57600080fd5b50604051620042173803806200421783398101604081905262000070916200098e565b82826200007d33620000df565b6000805460ff60a01b1916905581516200009f90600190602085019062000824565b508051620000b590600290602084019062000824565b505050620000c9816200012f60201b60201c565b620000d63360fa620001a8565b50505062000b72565b600080546001600160a01b038381166001600160a01b0319831681178455604051919092169283917f8be0079c531659141344cd1fd0a4f28419497f9722a3daafe3b4186f6b6457e09190a35050565b6000546001600160a01b031633146200018f5760405162461bcd60e51b815260206004820181905260248201527f4f776e61626c653a2063616c6c6572206973206e6f7420746865206f776e657260448201526064015b60405180910390fd5b8051620001a490600b90602084019062000824565b5050565b620001a4828260405180602001604052806000815250620001ca60201b60201c565b620001d6838362000242565b620001e5600084848462000398565b6200023d5760405162461bcd60e51b81526020600482015260326024820152600080516020620041f783398151915260448201527131b2b4bb32b91034b6b83632b6b2b73a32b960711b606482015260840162000186565b505050565b6001600160a01b0382166200029a5760405162461bcd60e51b815260206004820181905260248201527f4552433732313a206d696e7420746f20746865207a65726f2061646472657373604482015260640162000186565b6000818152600360205260409020546001600160a01b031615620003015760405162461bcd60e51b815260206004820152601c60248201527f4552433732313a20746f6b656e20616c7265616479206d696e74656400000000604482015260640162000186565b6200030f6000838362000501565b6001600160a01b03821660009081526004602052604081208054600192906200033a90849062000a75565b909155505060008181526003602052604080822080546001600160a01b0319166001600160a01b03861690811790915590518392907fddf252ad1be2c89b69c2b068fc378daa952ba7f163c4a11628f55a4df523b3ef908290a45050565b6000620003b9846001600160a01b0316620005dd60201b62001c361760201c565b15620004f557604051630a85bd0160e11b81526001600160a01b0385169063150b7a0290620003f390339089908890889060040162000a1f565b602060405180830381600087803b1580156200040e57600080fd5b505af192505050801562000441575060408051601f3d908101601f191682019092526200043e918101906200095b565b60015b620004da573d80801562000472576040519150601f19603f3d011682016040523d82523d6000602084013e62000477565b606091505b508051620004d25760405162461bcd60e51b81526020600482015260326024820152600080516020620041f783398151915260448201527131b2b4bb32b91034b6b83632b6b2b73a32b960711b606482015260840162000186565b805181602001fd5b6001600160e01b031916630a85bd0160e11b149050620004f9565b5060015b949350505050565b620005198383836200023d60201b62000a8e1760201c565b6001600160a01b03831662000577576200057181600980546000838152600a60205260408120829055600182018355919091527f6e1540171b6c0c960b71a7020d9f60077f6af931a8bbf590da0223dacf75c7af0155565b6200059d565b816001600160a01b0316836001600160a01b0316146200059d576200059d8382620005e3565b6001600160a01b038216620005b7576200023d8162000690565b826001600160a01b0316826001600160a01b0316146200023d576200023d82826200074a565b3b151590565b60006001620005fd846200079b60201b620014831760201c565b62000609919062000a90565b6000838152600860205260409020549091508082146200065d576001600160a01b03841660009081526007602090815260408083208584528252808320548484528184208190558352600890915290208190555b5060009182526008602090815260408084208490556001600160a01b039094168352600781528383209183525290812055565b600954600090620006a49060019062000a90565b6000838152600a602052604081205460098054939450909284908110620006cf57620006cf62000b46565b906000526020600020015490508060098381548110620006f357620006f362000b46565b6000918252602080832090910192909255828152600a909152604080822084905585825281205560098054806200072e576200072e62000b30565b6001900381819060005260206000200160009055905550505050565b600062000762836200079b60201b620014831760201c565b6001600160a01b039093166000908152600760209081526040808320868452825280832085905593825260089052919091209190915550565b60006001600160a01b038216620008085760405162461bcd60e51b815260206004820152602a60248201527f4552433732313a2062616c616e636520717565727920666f7220746865207a65604482015269726f206164647265737360b01b606482015260840162000186565b506001600160a01b031660009081526004602052604090205490565b828054620008329062000add565b90600052602060002090601f016020900481019282620008565760008555620008a1565b82601f106200087157805160ff1916838001178555620008a1565b82800160010185558215620008a1579182015b82811115620008a157825182559160200191906001019062000884565b50620008af929150620008b3565b5090565b5b80821115620008af5760008155600101620008b4565b600082601f830112620008dc57600080fd5b81516001600160401b0380821115620008f957620008f962000b5c565b604051601f8301601f19908116603f0116810190828211818310171562000924576200092462000b5c565b816040528381528660208588010111156200093e57600080fd5b6200095184602083016020890162000aaa565b9695505050505050565b6000602082840312156200096e57600080fd5b81516001600160e01b0319811681146200098757600080fd5b9392505050565b600080600060608486031215620009a457600080fd5b83516001600160401b0380821115620009bc57600080fd5b620009ca87838801620008ca565b94506020860151915080821115620009e157600080fd5b620009ef87838801620008ca565b9350604086015191508082111562000a0657600080fd5b5062000a1586828701620008ca565b9150509250925092565b600060018060a01b03808716835280861660208401525083604083015260806060830152825180608084015262000a5e8160a085016020870162000aaa565b601f01601f19169190910160a00195945050505050565b6000821982111562000a8b5762000a8b62000b1a565b500190565b60008282101562000aa55762000aa562000b1a565b500390565b60005b8381101562000ac757818101518382015260200162000aad565b8381111562000ad7576000848401525b50505050565b600181811c9082168062000af257607f821691505b6020821081141562000b1457634e487b7160e01b600052602260045260246000fd5b50919050565b634e487b7160e01b600052601160045260246000fd5b634e487b7160e01b600052603160045260246000fd5b634e487b7160e01b600052603260045260246000fd5b634e487b7160e01b600052604160045260246000fd5b6136758062000b826000396000f3fe6080604052600436106102345760003560e01c806355f804b311610138578063a22cb465116100b0578063d5abeb011161007f578063e985e9c511610064578063e985e9c51461061d578063f2fde38b14610673578063f4f3b2001461069357600080fd5b8063d5abeb01146105e7578063da3ef23f146105fd57600080fd5b8063a22cb46514610572578063b88d4fde14610592578063c6682862146105b2578063c87b56dd146105c757600080fd5b806370a08231116101075780638456cb59116100ec5780638456cb591461051d5780638da5cb5b1461053257806395d89b411461055d57600080fd5b806370a08231146104e8578063715018a61461050857600080fd5b806355f804b3146104635780635c975abb146104835780636352211e146104b35780636c0360eb146104d357600080fd5b806323b872dd116101cb57806340c10f191161019a578063438b63001161017f578063438b6300146103f657806344a0d68a146104235780634f6ccce71461044357600080fd5b806340c10f19146103c357806342842e0e146103d657600080fd5b806323b872dd146103665780632f745c59146103865780633ccfd60b146103a65780633f4ba83a146103ae57600080fd5b8063095ea7b311610207578063095ea7b3146102f757806313faede61461031757806318160ddd1461033b578063239c70ae1461035057600080fd5b806301ffc9a71461023957806306fdde031461026e578063081812fc14610290578063088a4ed0146102d5575b600080fd5b34801561024557600080fd5b5061025961025436600461310f565b6106b3565b60405190151581526020015b60405180910390f35b34801561027a57600080fd5b5061028361070f565b6040516102659190613396565b34801561029c57600080fd5b506102b06102ab366004613192565b6107a1565b60405173ffffffffffffffffffffffffffffffffffffffff9091168152602001610265565b3480156102e157600080fd5b506102f56102f0366004613192565b610880565b005b34801561030357600080fd5b506102f56103123660046130c6565b610906565b34801561032357600080fd5b5061032d600f5481565b604051908152602001610265565b34801561034757600080fd5b5060095461032d565b34801561035c57600080fd5b5061032d600e5481565b34801561037257600080fd5b506102f5610381366004612fd7565b610a93565b34801561039257600080fd5b5061032d6103a13660046130c6565b610b34565b6102f5610c03565b3480156103ba57600080fd5b506102f5610d07565b6102f56103d13660046130c6565b610d90565b3480156103e257600080fd5b506102f56103f1366004612fd7565b6110aa565b34801561040257600080fd5b50610416610411366004612f81565b6110c5565b6040516102659190613352565b34801561042f57600080fd5b506102f561043e366004613192565b611167565b34801561044f57600080fd5b5061032d61045e366004613192565b6111ed565b34801561046f57600080fd5b506102f561047e366004613149565b6112ab565b34801561048f57600080fd5b5060005474010000000000000000000000000000000000000000900460ff16610259565b3480156104bf57600080fd5b506102b06104ce366004613192565b611343565b3480156104df57600080fd5b506102836113f5565b3480156104f457600080fd5b5061032d610503366004612f81565b611483565b34801561051457600080fd5b506102f5611551565b34801561052957600080fd5b506102f56115dc565b34801561053e57600080fd5b5060005473ffffffffffffffffffffffffffffffffffffffff166102b0565b34801561056957600080fd5b50610283611665565b34801561057e57600080fd5b506102f561058d366004613098565b611674565b34801561059e57600080fd5b506102f56105ad366004613018565b61167f565b3480156105be57600080fd5b50610283611721565b3480156105d357600080fd5b506102836105e2366004613192565b61172e565b3480156105f357600080fd5b5061032d600d5481565b34801561060957600080fd5b506102f5610618366004613149565b611841565b34801561062957600080fd5b50610259610638366004612f9e565b73ffffffffffffffffffffffffffffffffffffffff918216600090815260066020908152604080832093909416825291909152205460ff1690565b34801561067f57600080fd5b506102f561068e366004612f81565b6118d5565b34801561069f57600080fd5b506102f56106ae366004612f81565b611a05565b60007fffffffff0000000000000000000000000000000000000000000000000000000082167f780e9d63000000000000000000000000000000000000000000000000000000001480610709575061070982611c3c565b92915050565b60606001805461071e90613455565b80601f016020809104026020016040519081016040528092919081815260200182805461074a90613455565b80156107975780601f1061076c57610100808354040283529160200191610797565b820191906000526020600020905b81548152906001019060200180831161077a57829003601f168201915b5050505050905090565b60008181526003602052604081205473ffffffffffffffffffffffffffffffffffffffff16610857576040517f08c379a000000000000000000000000000000000000000000000000000000000815260206004820152602c60248201527f4552433732313a20617070726f76656420717565727920666f72206e6f6e657860448201527f697374656e7420746f6b656e000000000000000000000000000000000000000060648201526084015b60405180910390fd5b5060009081526005602052604090205473ffffffffffffffffffffffffffffffffffffffff1690565b60005473ffffffffffffffffffffffffffffffffffffffff163314610901576040517f08c379a000000000000000000000000000000000000000000000000000000000815260206004820181905260248201527f4f776e61626c653a2063616c6c6572206973206e6f7420746865206f776e6572604482015260640161084e565b600e55565b600061091182611343565b90508073ffffffffffffffffffffffffffffffffffffffff168373ffffffffffffffffffffffffffffffffffffffff1614156109cf576040517f08c379a000000000000000000000000000000000000000000000000000000000815260206004820152602160248201527f4552433732313a20617070726f76616c20746f2063757272656e74206f776e6560448201527f7200000000000000000000000000000000000000000000000000000000000000606482015260840161084e565b3373ffffffffffffffffffffffffffffffffffffffff821614806109f857506109f88133610638565b610a84576040517f08c379a000000000000000000000000000000000000000000000000000000000815260206004820152603860248201527f4552433732313a20617070726f76652063616c6c6572206973206e6f74206f7760448201527f6e6572206e6f7220617070726f76656420666f7220616c6c0000000000000000606482015260840161084e565b610a8e8383611d1f565b505050565b610a9d3382611dbf565b610b29576040517f08c379a000000000000000000000000000000000000000000000000000000000815260206004820152603160248201527f4552433732313a207472616e736665722063616c6c6572206973206e6f74206f60448201527f776e6572206e6f7220617070726f766564000000000000000000000000000000606482015260840161084e565b610a8e838383611f2f565b6000610b3f83611483565b8210610bcd576040517f08c379a000000000000000000000000000000000000000000000000000000000815260206004820152602b60248201527f455243373231456e756d657261626c653a206f776e657220696e646578206f7560448201527f74206f6620626f756e6473000000000000000000000000000000000000000000606482015260840161084e565b5073ffffffffffffffffffffffffffffffffffffffff919091166000908152600760209081526040808320938352929052205490565b60005473ffffffffffffffffffffffffffffffffffffffff163314610c84576040517f08c379a000000000000000000000000000000000000000000000000000000000815260206004820181905260248201527f4f776e61626c653a2063616c6c6572206973206e6f7420746865206f776e6572604482015260640161084e565b60405133904780156108fc02916000818181858888f19350505050610d05576040517f08c379a000000000000000000000000000000000000000000000000000000000815260206004820152600f60248201527f5472616e73666572204661696c65640000000000000000000000000000000000604482015260640161084e565b565b60005473ffffffffffffffffffffffffffffffffffffffff163314610d88576040517f08c379a000000000000000000000000000000000000000000000000000000000815260206004820181905260248201527f4f776e61626c653a2063616c6c6572206973206e6f7420746865206f776e6572604482015260640161084e565b610d056121a1565b60005474010000000000000000000000000000000000000000900460ff1615610e15576040517f08c379a000000000000000000000000000000000000000000000000000000000815260206004820152601060248201527f5061757361626c653a2070617573656400000000000000000000000000000000604482015260640161084e565b6000610e2060095490565b905060008211610eb2576040517f08c379a000000000000000000000000000000000000000000000000000000000815260206004820152603060248201527f4e6f6d7374726f6e6175743a206d696e74416d6f756e742073686f756c64206260448201527f652067726561746572207468616e203000000000000000000000000000000000606482015260840161084e565b600e54821115610f44576040517f08c379a000000000000000000000000000000000000000000000000000000000815260206004820152603460248201527f4e6f6d7374726f6e6175743a206d696e74416d6f756e742073686f756c64206260448201527f65206c657373207468616e206d6178206d696e74000000000000000000000000606482015260840161084e565b600d54610f5183836133a9565b1115610fdf576040517f08c379a000000000000000000000000000000000000000000000000000000000815260206004820152602160248201527f4e6f6d7374726f6e6175743a20537570706c79206e6f7420617661696c61626c60448201527f6500000000000000000000000000000000000000000000000000000000000000606482015260840161084e565b60005473ffffffffffffffffffffffffffffffffffffffff1633146110755781600f5461100c91906133d5565b341015611075576040517f08c379a000000000000000000000000000000000000000000000000000000000815260206004820152601d60248201527f4e6f6d7374726f6e6175743a20496e737566666369656e742043656c6f000000604482015260640161084e565b60015b8281116110a4576110928461108d83856133a9565b61229a565b8061109c816134a9565b915050611078565b50505050565b610a8e8383836040518060200160405280600081525061167f565b606060006110d283611483565b905060008167ffffffffffffffff8111156110ef576110ef6135b2565b604051908082528060200260200182016040528015611118578160200160208202803683370190505b50905060005b8281101561115f576111308582610b34565b82828151811061114257611142613583565b602090810291909101015280611157816134a9565b91505061111e565b509392505050565b60005473ffffffffffffffffffffffffffffffffffffffff1633146111e8576040517f08c379a000000000000000000000000000000000000000000000000000000000815260206004820181905260248201527f4f776e61626c653a2063616c6c6572206973206e6f7420746865206f776e6572604482015260640161084e565b600f55565b60006111f860095490565b8210611286576040517f08c379a000000000000000000000000000000000000000000000000000000000815260206004820152602c60248201527f455243373231456e756d657261626c653a20676c6f62616c20696e646578206f60448201527f7574206f6620626f756e64730000000000000000000000000000000000000000606482015260840161084e565b6009828154811061129957611299613583565b90600052602060002001549050919050565b60005473ffffffffffffffffffffffffffffffffffffffff16331461132c576040517f08c379a000000000000000000000000000000000000000000000000000000000815260206004820181905260248201527f4f776e61626c653a2063616c6c6572206973206e6f7420746865206f776e6572604482015260640161084e565b805161133f90600b906020840190612e54565b5050565b60008181526003602052604081205473ffffffffffffffffffffffffffffffffffffffff1680610709576040517f08c379a000000000000000000000000000000000000000000000000000000000815260206004820152602960248201527f4552433732313a206f776e657220717565727920666f72206e6f6e657869737460448201527f656e7420746f6b656e0000000000000000000000000000000000000000000000606482015260840161084e565b600b805461140290613455565b80601f016020809104026020016040519081016040528092919081815260200182805461142e90613455565b801561147b5780601f106114505761010080835404028352916020019161147b565b820191906000526020600020905b81548152906001019060200180831161145e57829003601f168201915b505050505081565b600073ffffffffffffffffffffffffffffffffffffffff8216611528576040517f08c379a000000000000000000000000000000000000000000000000000000000815260206004820152602a60248201527f4552433732313a2062616c616e636520717565727920666f7220746865207a6560448201527f726f206164647265737300000000000000000000000000000000000000000000606482015260840161084e565b5073ffffffffffffffffffffffffffffffffffffffff1660009081526004602052604090205490565b60005473ffffffffffffffffffffffffffffffffffffffff1633146115d2576040517f08c379a000000000000000000000000000000000000000000000000000000000815260206004820181905260248201527f4f776e61626c653a2063616c6c6572206973206e6f7420746865206f776e6572604482015260640161084e565b610d0560006122b4565b60005473ffffffffffffffffffffffffffffffffffffffff16331461165d576040517f08c379a000000000000000000000000000000000000000000000000000000000815260206004820181905260248201527f4f776e61626c653a2063616c6c6572206973206e6f7420746865206f776e6572604482015260640161084e565b610d05612329565b60606002805461071e90613455565b61133f338383612415565b6116893383611dbf565b611715576040517f08c379a000000000000000000000000000000000000000000000000000000000815260206004820152603160248201527f4552433732313a207472616e736665722063616c6c6572206973206e6f74206f60448201527f776e6572206e6f7220617070726f766564000000000000000000000000000000606482015260840161084e565b6110a484848484612543565b600c805461140290613455565b60008181526003602052604090205460609073ffffffffffffffffffffffffffffffffffffffff166117e2576040517f08c379a000000000000000000000000000000000000000000000000000000000815260206004820152602c60248201527f4e6f6d7374726f6e6175743a2055524920717565727920666f72206e6f6e657860448201527f697374656e7420746f6b656e0000000000000000000000000000000000000000606482015260840161084e565b60006117ec6125e6565b9050600081511161180c576040518060200160405280600081525061183a565b80611816846125f5565b600c60405160200161182a9392919061320e565b6040516020818303038152906040525b9392505050565b60005473ffffffffffffffffffffffffffffffffffffffff1633146118c2576040517f08c379a000000000000000000000000000000000000000000000000000000000815260206004820181905260248201527f4f776e61626c653a2063616c6c6572206973206e6f7420746865206f776e6572604482015260640161084e565b805161133f90600c906020840190612e54565b60005473ffffffffffffffffffffffffffffffffffffffff163314611956576040517f08c379a000000000000000000000000000000000000000000000000000000000815260206004820181905260248201527f4f776e61626c653a2063616c6c6572206973206e6f7420746865206f776e6572604482015260640161084e565b73ffffffffffffffffffffffffffffffffffffffff81166119f9576040517f08c379a000000000000000000000000000000000000000000000000000000000815260206004820152602660248201527f4f776e61626c653a206e6577206f776e657220697320746865207a65726f206160448201527f6464726573730000000000000000000000000000000000000000000000000000606482015260840161084e565b611a02816122b4565b50565b60005473ffffffffffffffffffffffffffffffffffffffff163314611a86576040517f08c379a000000000000000000000000000000000000000000000000000000000815260206004820181905260248201527f4f776e61626c653a2063616c6c6572206973206e6f7420746865206f776e6572604482015260640161084e565b6040517f70a0823100000000000000000000000000000000000000000000000000000000815230600482015273ffffffffffffffffffffffffffffffffffffffff82169063a9059cbb90339083906370a082319060240160206040518083038186803b158015611af557600080fd5b505afa158015611b09573d6000803e3d6000fd5b505050506040513d601f19601f82011682018060405250810190611b2d91906131ab565b6040517fffffffff0000000000000000000000000000000000000000000000000000000060e085901b16815273ffffffffffffffffffffffffffffffffffffffff90921660048301526024820152604401602060405180830381600087803b158015611b9857600080fd5b505af1158015611bac573d6000803e3d6000fd5b505050506040513d601f19601f82011682018060405250810190611bd091906130f2565b611a02576040517f08c379a000000000000000000000000000000000000000000000000000000000815260206004820152600f60248201527f5472616e73666572206661696c65640000000000000000000000000000000000604482015260640161084e565b3b151590565b60007fffffffff0000000000000000000000000000000000000000000000000000000082167f80ac58cd000000000000000000000000000000000000000000000000000000001480611ccf57507fffffffff0000000000000000000000000000000000000000000000000000000082167f5b5e139f00000000000000000000000000000000000000000000000000000000145b8061070957507f01ffc9a7000000000000000000000000000000000000000000000000000000007fffffffff00000000000000000000000000000000000000000000000000000000831614610709565b600081815260056020526040902080547fffffffffffffffffffffffff00000000000000000000000000000000000000001673ffffffffffffffffffffffffffffffffffffffff84169081179091558190611d7982611343565b73ffffffffffffffffffffffffffffffffffffffff167f8c5be1e5ebec7d5bd14f71427d1e84f3dd0314c0f7b2291e5b200ac8c7c3b92560405160405180910390a45050565b60008181526003602052604081205473ffffffffffffffffffffffffffffffffffffffff16611e70576040517f08c379a000000000000000000000000000000000000000000000000000000000815260206004820152602c60248201527f4552433732313a206f70657261746f7220717565727920666f72206e6f6e657860448201527f697374656e7420746f6b656e0000000000000000000000000000000000000000606482015260840161084e565b6000611e7b83611343565b90508073ffffffffffffffffffffffffffffffffffffffff168473ffffffffffffffffffffffffffffffffffffffff161480611eea57508373ffffffffffffffffffffffffffffffffffffffff16611ed2846107a1565b73ffffffffffffffffffffffffffffffffffffffff16145b80611f27575073ffffffffffffffffffffffffffffffffffffffff80821660009081526006602090815260408083209388168352929052205460ff165b949350505050565b8273ffffffffffffffffffffffffffffffffffffffff16611f4f82611343565b73ffffffffffffffffffffffffffffffffffffffff1614611ff2576040517f08c379a000000000000000000000000000000000000000000000000000000000815260206004820152602960248201527f4552433732313a207472616e73666572206f6620746f6b656e2074686174206960448201527f73206e6f74206f776e0000000000000000000000000000000000000000000000606482015260840161084e565b73ffffffffffffffffffffffffffffffffffffffff8216612094576040517f08c379a0000000000000000000000000000000000000000000000000000000008152602060048201526024808201527f4552433732313a207472616e7366657220746f20746865207a65726f2061646460448201527f7265737300000000000000000000000000000000000000000000000000000000606482015260840161084e565b61209f838383612727565b6120aa600082611d1f565b73ffffffffffffffffffffffffffffffffffffffff831660009081526004602052604081208054600192906120e0908490613412565b909155505073ffffffffffffffffffffffffffffffffffffffff8216600090815260046020526040812080546001929061211b9084906133a9565b909155505060008181526003602052604080822080547fffffffffffffffffffffffff00000000000000000000000000000000000000001673ffffffffffffffffffffffffffffffffffffffff86811691821790925591518493918716917fddf252ad1be2c89b69c2b068fc378daa952ba7f163c4a11628f55a4df523b3ef91a4505050565b60005474010000000000000000000000000000000000000000900460ff16612225576040517f08c379a000000000000000000000000000000000000000000000000000000000815260206004820152601460248201527f5061757361626c653a206e6f7420706175736564000000000000000000000000604482015260640161084e565b600080547fffffffffffffffffffffff00ffffffffffffffffffffffffffffffffffffffff1690557f5db9ee0a495bf2e6ff9c91a7834c1ba4fdd244a5e8aa4e537bd38aeae4b073aa335b60405173ffffffffffffffffffffffffffffffffffffffff909116815260200160405180910390a1565b61133f82826040518060200160405280600081525061282d565b6000805473ffffffffffffffffffffffffffffffffffffffff8381167fffffffffffffffffffffffff0000000000000000000000000000000000000000831681178455604051919092169283917f8be0079c531659141344cd1fd0a4f28419497f9722a3daafe3b4186f6b6457e09190a35050565b60005474010000000000000000000000000000000000000000900460ff16156123ae576040517f08c379a000000000000000000000000000000000000000000000000000000000815260206004820152601060248201527f5061757361626c653a2070617573656400000000000000000000000000000000604482015260640161084e565b600080547fffffffffffffffffffffff00ffffffffffffffffffffffffffffffffffffffff16740100000000000000000000000000000000000000001790557f62e78cea01bee320cd4e420270b5ea74000d11b0c9f74754ebdbfc544b05a2586122703390565b8173ffffffffffffffffffffffffffffffffffffffff168373ffffffffffffffffffffffffffffffffffffffff1614156124ab576040517f08c379a000000000000000000000000000000000000000000000000000000000815260206004820152601960248201527f4552433732313a20617070726f766520746f2063616c6c657200000000000000604482015260640161084e565b73ffffffffffffffffffffffffffffffffffffffff83811660008181526006602090815260408083209487168084529482529182902080547fffffffffffffffffffffffffffffffffffffffffffffffffffffffffffffff001686151590811790915591519182527f17307eab39ab6107e8899845ad3d59bd9653f200f220920489ca2b5937696c31910160405180910390a3505050565b61254e848484611f2f565b61255a848484846128d0565b6110a4576040517f08c379a000000000000000000000000000000000000000000000000000000000815260206004820152603260248201527f4552433732313a207472616e7366657220746f206e6f6e20455243373231526560448201527f63656976657220696d706c656d656e7465720000000000000000000000000000606482015260840161084e565b6060600b805461071e90613455565b60608161263557505060408051808201909152600181527f3000000000000000000000000000000000000000000000000000000000000000602082015290565b8160005b811561265f5780612649816134a9565b91506126589050600a836133c1565b9150612639565b60008167ffffffffffffffff81111561267a5761267a6135b2565b6040519080825280601f01601f1916602001820160405280156126a4576020820181803683370190505b5090505b8415611f27576126b9600183613412565b91506126c6600a866134e2565b6126d19060306133a9565b60f81b8183815181106126e6576126e6613583565b60200101907effffffffffffffffffffffffffffffffffffffffffffffffffffffffffffff1916908160001a905350612720600a866133c1565b94506126a8565b73ffffffffffffffffffffffffffffffffffffffff831661278f5761278a81600980546000838152600a60205260408120829055600182018355919091527f6e1540171b6c0c960b71a7020d9f60077f6af931a8bbf590da0223dacf75c7af0155565b6127cc565b8173ffffffffffffffffffffffffffffffffffffffff168373ffffffffffffffffffffffffffffffffffffffff16146127cc576127cc8382612acf565b73ffffffffffffffffffffffffffffffffffffffff82166127f057610a8e81612b86565b8273ffffffffffffffffffffffffffffffffffffffff168273ffffffffffffffffffffffffffffffffffffffff1614610a8e57610a8e8282612c35565b6128378383612c86565b61284460008484846128d0565b610a8e576040517f08c379a000000000000000000000000000000000000000000000000000000000815260206004820152603260248201527f4552433732313a207472616e7366657220746f206e6f6e20455243373231526560448201527f63656976657220696d706c656d656e7465720000000000000000000000000000606482015260840161084e565b600073ffffffffffffffffffffffffffffffffffffffff84163b15612ac4576040517f150b7a0200000000000000000000000000000000000000000000000000000000815273ffffffffffffffffffffffffffffffffffffffff85169063150b7a0290612947903390899088908890600401613309565b602060405180830381600087803b15801561296157600080fd5b505af19250505080156129af575060408051601f3d9081017fffffffffffffffffffffffffffffffffffffffffffffffffffffffffffffffe01682019092526129ac9181019061312c565b60015b612a79573d8080156129dd576040519150601f19603f3d011682016040523d82523d6000602084013e6129e2565b606091505b508051612a71576040517f08c379a000000000000000000000000000000000000000000000000000000000815260206004820152603260248201527f4552433732313a207472616e7366657220746f206e6f6e20455243373231526560448201527f63656976657220696d706c656d656e7465720000000000000000000000000000606482015260840161084e565b805181602001fd5b7fffffffff00000000000000000000000000000000000000000000000000000000167f150b7a0200000000000000000000000000000000000000000000000000000000149050611f27565b506001949350505050565b60006001612adc84611483565b612ae69190613412565b600083815260086020526040902054909150808214612b465773ffffffffffffffffffffffffffffffffffffffff841660009081526007602090815260408083208584528252808320548484528184208190558352600890915290208190555b50600091825260086020908152604080842084905573ffffffffffffffffffffffffffffffffffffffff9094168352600781528383209183525290812055565b600954600090612b9890600190613412565b6000838152600a602052604081205460098054939450909284908110612bc057612bc0613583565b906000526020600020015490508060098381548110612be157612be1613583565b6000918252602080832090910192909255828152600a90915260408082208490558582528120556009805480612c1957612c19613554565b6001900381819060005260206000200160009055905550505050565b6000612c4083611483565b73ffffffffffffffffffffffffffffffffffffffff9093166000908152600760209081526040808320868452825280832085905593825260089052919091209190915550565b73ffffffffffffffffffffffffffffffffffffffff8216612d03576040517f08c379a000000000000000000000000000000000000000000000000000000000815260206004820181905260248201527f4552433732313a206d696e7420746f20746865207a65726f2061646472657373604482015260640161084e565b60008181526003602052604090205473ffffffffffffffffffffffffffffffffffffffff1615612d8f576040517f08c379a000000000000000000000000000000000000000000000000000000000815260206004820152601c60248201527f4552433732313a20746f6b656e20616c7265616479206d696e74656400000000604482015260640161084e565b612d9b60008383612727565b73ffffffffffffffffffffffffffffffffffffffff82166000908152600460205260408120805460019290612dd19084906133a9565b909155505060008181526003602052604080822080547fffffffffffffffffffffffff00000000000000000000000000000000000000001673ffffffffffffffffffffffffffffffffffffffff861690811790915590518392907fddf252ad1be2c89b69c2b068fc378daa952ba7f163c4a11628f55a4df523b3ef908290a45050565b828054612e6090613455565b90600052602060002090601f016020900481019282612e825760008555612ec8565b82601f10612e9b57805160ff1916838001178555612ec8565b82800160010185558215612ec8579182015b82811115612ec8578251825591602001919060010190612ead565b50612ed4929150612ed8565b5090565b5b80821115612ed45760008155600101612ed9565b600067ffffffffffffffff80841115612f0857612f086135b2565b604051601f85017fffffffffffffffffffffffffffffffffffffffffffffffffffffffffffffffe0908116603f01168101908282118183101715612f4e57612f4e6135b2565b81604052809350858152868686011115612f6757600080fd5b858560208301376000602087830101525050509392505050565b600060208284031215612f9357600080fd5b813561183a816135e1565b60008060408385031215612fb157600080fd5b8235612fbc816135e1565b91506020830135612fcc816135e1565b809150509250929050565b600080600060608486031215612fec57600080fd5b8335612ff7816135e1565b92506020840135613007816135e1565b929592945050506040919091013590565b6000806000806080858703121561302e57600080fd5b8435613039816135e1565b93506020850135613049816135e1565b925060408501359150606085013567ffffffffffffffff81111561306c57600080fd5b8501601f8101871361307d57600080fd5b61308c87823560208401612eed565b91505092959194509250565b600080604083850312156130ab57600080fd5b82356130b6816135e1565b91506020830135612fcc81613603565b600080604083850312156130d957600080fd5b82356130e4816135e1565b946020939093013593505050565b60006020828403121561310457600080fd5b815161183a81613603565b60006020828403121561312157600080fd5b813561183a81613611565b60006020828403121561313e57600080fd5b815161183a81613611565b60006020828403121561315b57600080fd5b813567ffffffffffffffff81111561317257600080fd5b8201601f8101841361318357600080fd5b611f2784823560208401612eed565b6000602082840312156131a457600080fd5b5035919050565b6000602082840312156131bd57600080fd5b5051919050565b600081518084526131dc816020860160208601613429565b601f017fffffffffffffffffffffffffffffffffffffffffffffffffffffffffffffffe0169290920160200192915050565b6000845160206132218285838a01613429565b8551918401916132348184848a01613429565b8554920191600090600181811c908083168061325157607f831692505b858310811415613288577f4e487b710000000000000000000000000000000000000000000000000000000085526022600452602485fd5b80801561329c57600181146132cb576132f8565b7fffffffffffffffffffffffffffffffffffffffffffffffffffffffffffffff008516885283880195506132f8565b60008b81526020902060005b858110156132f05781548a8201529084019088016132d7565b505083880195505b50939b9a5050505050505050505050565b600073ffffffffffffffffffffffffffffffffffffffff80871683528086166020840152508360408301526080606083015261334860808301846131c4565b9695505050505050565b6020808252825182820181905260009190848201906040850190845b8181101561338a5783518352928401929184019160010161336e565b50909695505050505050565b60208152600061183a60208301846131c4565b600082198211156133bc576133bc6134f6565b500190565b6000826133d0576133d0613525565b500490565b6000817fffffffffffffffffffffffffffffffffffffffffffffffffffffffffffffffff048311821515161561340d5761340d6134f6565b500290565b600082821015613424576134246134f6565b500390565b60005b8381101561344457818101518382015260200161342c565b838111156110a45750506000910152565b600181811c9082168061346957607f821691505b602082108114156134a3577f4e487b7100000000000000000000000000000000000000000000000000000000600052602260045260246000fd5b50919050565b60007fffffffffffffffffffffffffffffffffffffffffffffffffffffffffffffffff8214156134db576134db6134f6565b5060010190565b6000826134f1576134f1613525565b500690565b7f4e487b7100000000000000000000000000000000000000000000000000000000600052601160045260246000fd5b7f4e487b7100000000000000000000000000000000000000000000000000000000600052601260045260246000fd5b7f4e487b7100000000000000000000000000000000000000000000000000000000600052603160045260246000fd5b7f4e487b7100000000000000000000000000000000000000000000000000000000600052603260045260246000fd5b7f4e487b7100000000000000000000000000000000000000000000000000000000600052604160045260246000fd5b73ffffffffffffffffffffffffffffffffffffffff81168114611a0257600080fd5b8015158114611a0257600080fd5b7fffffffff0000000000000000000000000000000000000000000000000000000081168114611a0257600080fdfea264697066735822122047b305cc4836bb3dcf716c855fd5a14cebfcbcffb133fe1cc072317cdaf4e13d64736f6c634300080700334552433732313a207472616e7366657220746f206e6f6e204552433732315265",
  "linkReferences": {},
  "deployedLinkReferences": {}
}